:020000040800F2
:10000000681C002075010008A9380008693700083D
:1000100000000000000000000000000000000000E0
:10002000000000000000000000000000AD380008E3
:100030000000000000000000AB380008AF380008E6
:100040008701000887010008870100088701000870
:100050008701000887010008870100088701000860
:100060003D45000887010008870100088701000856
:100070008701000887010008870100088701000840
:100080008701000887010008870100088701000830
:100090008701000887010008870100088701000820
:1000A0008701000887010008870100088701000810
:1000B0008701000887010008870100088701000800
:1000C00000F002F800F046F80CA030C808382418F8
:1000D0002D18671EA246AB4654465D46AC4201D180
:1000E00000F038F87E460F3EB6460FCC012633426C
:1000F00000D0FB1A3343A246AB461847B873000042
:10010000D8730000103A02D378C878C1FAD85207E1
:1001100001D330C830C101D504680C6070470000BD
:100120000023002400250026103A01D378C1FBD813
:10013000520700D330C100D50B6070471FB500983F
:10014000019900F072FD00F05BFA1FBD10B500F0E0
:10015000C3FA10BD00F0F2FA1146FFF7EFFF06F008
:1001600097FF00F0FFFC03B4FFF7F0FF03BC00F0C3
:10017000CDFE00000748804707480047FEE7FEE73E
:10018000FEE7FEE7FEE7FEE704480549054A064BA1
:100190007047000059390008C100000868160020A7
:1001A000681C002068180020681800204343514351
:1001B00030B55C18010C130C0D4692B25D4380B251
:1001C00051432C19054655430A0C09044D19624147
:1001D0005843010C00044019514130BDFEB504469E
:1001E00010460D46184373D0A6468C460020A41A2C
:1001F00001469D4167D36646002701243D46B61A55
:100200009D4102D313463A462124654676462F0483
:10021000360C3E432D0CB61A9D4104D3150C1B041D
:100220002B4312041034654676462F06360A3E43A9
:100230002D0AB61A9D4104D3150E1B022B43120240
:100240000834654676462F0736093E432D09B61A0F
:100250009D4104D3150F1B012B431201241D65463C
:100260007646AF07B6083E43AD08B61A9D4104D3A3
:10027000950F9B002B439200A41C65467646EF0722
:1002800076083E436D08B61A9D411AD392185B4119
:10029000641C16E00018764665464941B71A9D4130
:1002A0000191009009D36046B11A98418E46844668
:1002B000009801990025401C6941DD0752082A4336
:1002C0005B08641EE6D57246634603B0F0BDFFE7E7
:1002D0002046284307D00020C0430146C046C04600
:1002E00022462B46F1E700200146F7E70FB4054907
:1002F00010B503AA029800F053F910BC08BC04B072
:1003000018470000DC00002030B5441C03E00178F1
:10031000401C00290DD08107F9D10B4BDD0104C829
:10032000D11A91432940FAD0001B0A0603D0C01EFF
:1003300030BD001B30BD0A0401D0801E30BD090253
:10034000FCD0401E30BD000001010101D2B210B549
:1003500013029A1813049A1800F00EF810BD01E069
:1003600004C0091F0429FBD28B0701D50280801C21
:10037000C90700D00270704700290BD0C30702D014
:100380000270401C491E022904D3830702D5028053
:10039000801C891EE3E70022EEE70022DFE7000071
:1003A000002203098B4273D3030A8B4258D3030BF9
:1003B0008B423CD3030C8B4221D312E003460B4308
:1003C0007FD4002243088B4274D303098B425FD34E
:1003D000030A8B4244D3030B8B4228D3030C8B427A
:1003E0000DD30902FF2212BA030C8B4202D3121260
:1003F000090265D0030B8B4219D300E0090AC30B35
:100400008B4201D3CB03C01A5241830B8B4201D3E1
:100410008B03C01A5241430B8B4201D34B03C01ACA
:100420005241030B8B4201D30B03C01A5241C30A42
:100430008B4201D3CB02C01A5241830A8B4201D3B3
:100440008B02C01A5241430A8B4201D34B02C01A9D
:100450005241030A8B4201D30B02C01A5241CDD242
:10046000C3098B4201D3CB01C01A524183098B428D
:1004700001D38B01C01A524143098B4201D34B0176
:10048000C01A524103098B4201D30B01C01A5241D9
:10049000C3088B4201D3CB00C01A524183088B4260
:1004A00001D38B00C01A524143088B4201D34B0049
:1004B000C01A5241411A00D20146524110467047BB
:1004C0005DE0CA0F00D04942031000D340425340C0
:1004D0009C46002203098B422DD3030A8B4212D380
:1004E0008901FC2212BA030A8B420CD389019211B2
:1004F0008B4208D3890192118B4204D389013AD0EF
:10050000921100E08909C3098B4201D3CB01C01AC3
:10051000524183098B4201D38B01C01A52414309D6
:100520008B4201D34B01C01A524103098B4201D3C4
:100530000B01C01A5241C3088B4201D3CB00C01A31
:10054000524183088B4201D38B00C01A5241D9D249
:1005500043088B4201D34B00C01A5241411A00D2CA
:1005600001465241104663465B1001D34042002BC6
:1005700000D54942704763465B1000D3404201B545
:100580000449002802DC491C084000E00846C04637
:10059000C04602BDFFFFFF7F7047704770470000F5
:1005A000084B70B50D467B4400F013F8044628460E
:1005B00000F022F8002802D00020C04370BD204681
:1005C00070BD0000716E000001694A1C026108786C
:1005D000704700B58FB00291002105910549019344
:1005E0007944039111460490684600F0ECF80FB08E
:1005F00000BD0000E5FFFFFFC06880210840704794
:1006000010B543485421FFF7C8FE42485421FFF774
:10061000C4FE41485421FFF7C0FE40483C493D4BD1
:10062000404A01603E4803603B4810605A1C0A651E
:10063000411C1965012101653C48354A3AA17844BD
:1006400000F0F2F9002804D1384878440C3800F062
:1006500091FA38482F4A36A1784400F0E5F900288D
:1006600004D1344878440C3800F084FA32482A4ADD
:100670002FA1784400F0D8F9002804D12E487844FE
:100680000C3800F077FA40232148DC000021224694
:1006900000F0A4F9002804D0244878445C3800F025
:1006A00069FA1C4822464023002100F097F90028EF
:1006B00004D0204878445C3800F05CFA16482246A2
:1006C0001023002100F08AF9002804D01A48784449
:1006D0005C3800F04FFA10BD0F4870B5006D44084B
:1006E0000B48640000F018FA0A4800F015FA0A48AE
:1006F00000F012FA09E0206D450820466D0000F078
:100700000BFA204600F039F82C46002CF3D170BDCE
:1007100088000020DC0000203001002000000020C4
:10072000040000200800002072000000F66D0000A8
:1007300077000000E06D0000CA6D0000754600F013
:1007400053FAAE46050069465346C008C0008546C8
:1007500018B020B5FFF718FD60BCB646002600278C
:10076000C0C5C0C5C0C5C0C5C0C5C0C5C0C5C0C561
:10077000403D490849008D46704770B50446051F45
:1007800000F036FA0068002C1AD0446801E02046D8
:100790006468002C01D0AC42F9D301680A18AA425F
:1007A00004D12A6805468918016000E04560286880
:1007B0004119A14205D1616869602168401828602B
:1007C00070BD6C6070BDF8B506460024476880684F
:1007D00000903046F56803E00099B847641C304645
:1007E000A8470028F8D12046F8BD0000F8B5054616
:1007F0000C46C8680521C9048843012189050843BE
:10080000E060800602D5204600F03EFB7149E068BA
:100810000140022903D0204600F0E0FABCE00521A7
:10082000012249030140D20391420FD1C00306D5F2
:100830006168E06A884200D80846606006E0206986
:10084000E0626060606900F0C8F9A061A168002200
:10085000EEB200290EDAE06883050BD4C943A1602B
:100860000921226049030843E0606068411C61601F
:100870000670ACE0E068012149030843E060002015
:1008800020602069002831D1606900F098F90125C5
:1008900027462437ED02002816D0A0898005800F56
:1008A00008D0E06900F0EEF90028206102D0E0688D
:1008B000284318E001202761E061E0680321090274
:1008C0008843012189020DE0E06900F0DBF900288E
:1008D0002061EFD0E0682843E0608105890F03D1F3
:1008E000FF2101310843E06020696060E2683A4F0F
:1008F0002569D0051FD56168E06A884200D808469E
:10090000411B05D02246284600F072FA002843D148
:10091000E068010204D5E56200206560A06053E054
:10092000691CE1626160E169491E3843A160E060D1
:1009300030462E70F8BD100201D53A4009E06068DB
:10094000411C61600670E06838430A2EE06006D002
:100950000022E16A6068814203D90B4602E001226D
:10096000F7E70346A7895B1B7F0504D4E7699F422D
:1009700001DD002A1ED0814200D801460F1A002056
:10098000E5626560002BA06009DD22461946284615
:1009900000F02EFA002802D00020C043F8BD002F3E
:1009A00008D0A069E5626560C01BA061E068102105
:1009B0000843E060E068000209D56168A069E5626B
:1009C000491B40186560A0610120C043F8BD304656
:1009D000F8BD0000821000000000010070B5C4687E
:1009E000A50713D0650211D4D51FF93D0AD0FF3DEC
:1009F0006D1E07D0FF3DFF3D022D07D1014624317A
:100A0000012305E0074E5D1EB54201D3012070BDF4
:100A10000161C36141600F2109028C431443C4602A
:100A2000002070BDFFFFFF00F7B516460C4600988A
:100A3000002843D0104600F06FF82078611C612830
:100A40000AD0722802D0772839D102E0012500248B
:100A500004E00225042401E02D4D08240222032392
:100A600001270878491C2B2806D0622807D0203996
:100A7000C87F742807D008E01D431443F1E7042021
:100A800005433C43EDE7102004430098214600F065
:100A900077F8411C13D00021316171600121F560AC
:100AA0004902F1617061200704D53046022200211D
:100AB00000F01AF9306D384330653046FEBD002035
:100AC000FEBDF8B50D460646124C206DC10704D098
:100AD000410804D044086400F7E7224610E054209F
:100AE00000F0D0F8070010D07908206D49000122ED
:100AF00011430843542120653846FFF74EFC3A461F
:100B000029463046FFF790FFF8BD0020F8BD0000F1
:100B10000280000088000020FEB504464669006996
:100B20000F4F0190E56800200090A80707D02046ED
:100B300000F084F9304600F02DF8002801DA38463C
:100B4000FEBD280502D50198FFF717FE4C2120466F
:100B5000FFF723FC206D4008400020650098FEBD93
:100B6000FFFFFFFF10B50446C046C0462046FFF712
:100B7000FAFA10BD10B500F0AFF900F0A7F910BDFA
:100B80000EB501910090FFF7BFFB0290694601206E
:100B9000ABBE0EBD08B5694600900220ABBE08BDD5
:100BA0001FB56B4607C369460520ABBE04B010BD38
:100BB0001FB56C460FC469460620ABBEF6E708B504
:100BC000694600900920ABBE08BD1CB500900A2004
:100BD00001916946ABBE1CBD704708B569460090DF
:100BE0000C20ABBE08BD0000004870478401002007
:100BF000004870478C01002070477047704770476D
:100C000038B504460A4600206946C046C04600285A
:100C100005D002462046009900F086F9012038BD33
:100C200010B5012000F0D5F910BDF8B5C046C0469A
:100C3000054600200C461020C0460646A819A042D2
:100C40000DD9324669460020C046C046070001D192
:100C500000F0BFF90098A04200D00546C419FFF784
:100C6000C7FFF61D07460560F008C0004619284674
:100C700000F053F9B44204D031463868A21B00F0AA
:100C800053F9F8BD70B50646FFF7B2FF0568304668
:100C90000B30C408E400B44201D8002070BD68687D
:100CA0002A46002818D00168A14211D30B462146DC
:100CB00008318B4208D3436801194B6003681B1B42
:100CC0000B605160046001E041685160001D70BD1F
:100CD000024640680028E6D121462846FFF790FFEB
:100CE0000028DCD170BD0000F8B5044616460D465C
:100CF0004769007B800730D03846FFF760FF002847
:100D00002BD132461026002A25D0012A02D0022AF1
:100D100023D104E0204600F021F945191BE03846B4
:100D2000FFF75BFFE16831430028E16004DA204609
:100D300000F054F80120F8BDC9030BD56268E16AE0
:100D4000914200D81146A26989182269891A814204
:100D500000DD08462D18002D01DA0220F8BDE16AF9
:100D60006068E268814206D29103E06203D5012106
:100D700049048A433243A669AE4211DCE16A8142EA
:100D800001D90B4600E003469F192369FF1AAF42C1
:100D900006DD814201D90F4600E007469F4206D199
:100DA000202002430020A060A56220600DE0AD1B62
:100DB000E669AE1B8142A66000D90846C01A281A0F
:100DC00020605819606020208243034802400020C0
:100DD000E26040342072F8BDBFCFD7FFC1688022E7
:100DE000114392039143C16000218160016070470B
:100DF000F7B514460E463348D5685769054209D001
:100E00003846A169FFF7E1FE002811DB2D48C043F9
:100E10000540E5602B46324638460099FFF7C0FE94
:100E20004200A1695208B21A89180028A16104D0B1
:100E30002046FFF7D3FF0020C043FEBD70B5044637
:100E40000569C06A6168884200D80846E1680522E1
:100E5000D2049143E160C90314D5A84209D02246C7
:100E6000411B2846FFF7C4FF002802D00020C043E2
:100E700070BDE56200206560A060E06801210904A2
:100E80008843E060002070BD10B50446C068202192
:100E90008843E060A16AA06988420ED02046FFF72F
:100EA000CDFFE06803210903884310210843E06077
:100EB000A06AA0612069E06260600349E0680840C0
:100EC000E06010BD10000200BFBFFFFF10B500289A
:100ED00001D000F01BF810BD10B5014602A000F0D3
:100EE0005EF8012010BD000053494752545245445A
:100EF0003A2052656469726563743A2063616E27B3
:100F000074206F70656E3A200000000001491820BF
:100F1000ABBEFEE726000200704700210160416081
:100F2000806070471020704710B50346406801E0AC
:100F300003464068002801D08842F9D31868C318D6
:100F40008B4206D0CB1CD808C000001D411A521A93
:100F50000146081D0A60FFF710FC10BD10B50146E0
:100F6000C268900703D0900607D5886A0AE000F0AF
:100F70003DF801210160881E10BD8B694868C018CA
:100F80000B69C01A40310B7A002B02D0497A401A03
:100F900010BD1103FCD50028FADD401E10BD70B550
:100FA00005460C460A2000E06D1C00F018F8002DE4
:100FB00006D028780028F7D102E0641C00F00FF872
:100FC000002C02D020780028F7D10A2000F007F882
:100FD00070BD10B500F00EF8FFF778FF10BD08B532
:100FE000694608700320ABBE08BD0000004870478A
:100FF0008401002010B5012805D0002103A0FFF7CF
:10100000CEFF012010BD09A1F8E700005349475267
:10101000544D454D3A204F7574206F6620686561C8
:1010200070206D656D6F7279000000003A20486590
:101030006170206D656D6F727920636F727275706B
:101040007465640072B6FEE7F0B58DB00D68002DD2
:1010500000D1CBE00F466649884201D0062200E06D
:1010600005220B21090743180A21CB410093052BC8
:1010700000D30092012400210E4604940C910A91A1
:101080000B913A460797019017E03943089E5A4A58
:101090001160079A15682946E14017460A9A121D01
:1010A0000A920836641C0C9A921C0C920B9A521CE1
:1010B0000B923A46002900D198E0671E04990997DF
:1010C000B9400D40E6D008960695536803261F46A2
:1010D00037407D1E012D03931AD810460322059434
:1010E0000C9CA2400646019885689543F6680C9CC6
:1010F000A640059C2E438660DD06ED0F099EB54097
:1011000046688E432E434660D5430B994B000EE054
:1011100031460C988140CD43032F0346019806D1F8
:101120000C9905913746079A089E039B24E0C168F5
:1011300002952940079A95689D400D43C560022F8E
:10114000059316D117461C220A990A400F21914097
:10115000099DED08AD0045192E6A8E43396991400D
:101160003A463143019829627B6803271F40089E55
:1011700001E0089E039B029D05998F40016829406C
:10118000394301609903890F069F83D018203040AE
:101190000F2181400325099EAE43164A95192E6EF4
:1011A0008E4300998140314329661168079846684B
:1011B000F50201D5394300E0B9430E4A1160516888
:1011C000B50201D5394300E0B9430A4A51600A49E2
:1011D0004968B50301D5394300E0B943064A516077
:1011E0001168F20300D550E7B9434FE70DB0F0BDE9
:1011F00000140050001802408018024000690840A6
:10120000411E88417047002A02D018228150704741
:101210002822815070470000054800687047C0468A
:101220001A48406802490A68101808607047C046AA
:10123000600A002080B5032000F008F8002801D0E3
:10124000012080BD00F026F8002080BD70B50F4E53
:1012500071680124002916D005467D20C00005F0E4
:10126000E1FF01460A48006805F0DCFF02F052F990
:10127000032D08D8002806D10024E0432946224641
:1012800000F02AF83560204670BDC0460C000020F2
:101290002000002082B001200107084A13680B4398
:1012A000136013680B4001930199916801439160A9
:1012B000916801400091009802B0704758100240B8
:1012C000002805D41F210840012181400148016008
:1012D0007047C04600E100E0002805D40322034621
:1012E00093430C4A9A1806E00F220240083A03235F
:1012F0009A43074BD2188007C00E8901C9B28140BA
:10130000FF23834010689843084310607047C0462D
:101310001CED00E000E400E0B0B55921CA00002156
:10132000815403685C6D01252C435C6580188560E1
:10133000586D022202435A650846B0BD7047B0B5E9
:1013400028240D060BD5072529404C4300191030E1
:10135000002A0BD08360012101730020B0BD4C43F3
:101360000019152109014018002AF3D1C38000217A
:1013700001730020B0BD0000F0B583B00F240C4015
:101380005A4A1268D26914D00C236343D7184C37D9
:101390003C68002911D0636BA26D002A2DD0002B70
:1013A0002BD00022E263A265134600F0A4F903B03B
:1013B000F0BD171D3C680029EDD1397A012925D1EE
:1013C000A56A0026019031463246334600F052F9B4
:1013D00002952B8AE06B98421AD9216BCA182263B6
:1013E000C11A994200D80B46C01AE0630298817B6B
:1013F000019800F080F903B0F0BDA36302202062E1
:1014000000206064786808210143796003B0F0BD72
:10141000A06D012809D10298817B0198324633469C
:1014200000F069F9A66503B0F0BD02202062666491
:10143000606BA0637868082101437960E16C002942
:1014400002D02034204688470420387203B0F0BD13
:10145000F0B581B005460F2008400C2242432348D6
:101460000068C0698618746800290DD0284600F00D
:10147000C6F800216164A06302202062B0680821E0
:101480000143B16001B0F0BD307B0228FAD1A76AF8
:101490000021284600F0B3F80346A06BC018A063F3
:1014A000616B88420DD927206064B0680821014330
:1014B000B160E16C0029E5D020342046884701B0B6
:1014C000F0BD0BD0388A834208D1206BC21822634A
:1014D000B97B284600F0CEF801B0F0BDB06803211A
:1014E00009020143B16001B0F0BDC046EC06002026
:1014F00080B50A460721114028234B43C118120624
:1015000004D51031006803F0BDFB80BD1522120127
:101510008918006803F0B6FB80BD10B507220A40A9
:1015200009060AD4282151434118FF2352330024CD
:10153000CC5415231B01C91805E02821514341183B
:1015400001234B7410310A7029221201835C012B94
:1015500001D1022010BD841801222270006802F01F
:10156000F5FF0020207010BDB0B50F220A400379AE
:101570009A4201D90120B0BD07220A4009060AD4C7
:10158000282151434118FF2352330024CC54152302
:101590001B01C91805E028215143411801234B7450
:1015A000103100248C700A7029221201835C012BF7
:1015B00001D10220B0BD851801222A70006803F015
:1015C0004FF82C702046B0BD10B529221201835C63
:1015D000012B01D1022010BD841801222270006865
:1015E0000A0604D403F08EFB0020207010BD0722F1
:1015F0000A40114603F088FB0020207010BD07222E
:101600000A402821514340185B2189004058704707
:1016100070B507240C4009060AD4282161434118FB
:10162000FF25523500264E5515252D01491905E097
:1016300028216143411801254D741031CB700C4DA8
:101640002A400A610C70022B01D100220A71292262
:101650001201835C012B01D1022070BD841801228C
:101660002270006802F01CFE0020207070BDC04691
:10167000FF070000B0B507240C4028216143411842
:1016800015252D014C55491900240D4614351CC54E
:101690004C70006803F036F82046B0BD10B5072244
:1016A0000A4003799A4201D9012010BD0B060AD4E1
:1016B00028234B43C118FF2352330024CC54152355
:1016C0001B01C91805E028215143411801234B741F
:1016D00010310A7001228A7029231B01C45C012C7D
:1016E00001D1022010BDC4182270006802F0ECFF86
:1016F0000020207010BD70B507240C4028216143E4
:101700004118342501264E550B634E740C7410316C
:1017100000240D4614351CC5006802F0F3FF204676
:1017200070BD0000F0B591B005465926006803F081
:10173000EDFA012401041CD4F949491C084239D0AE
:101740002746292000012C182868416CF54A0A40D8
:101750004264284600F020FD2078012810D00026A1
:101760002E7327702868314603F0FAFA267011B0FC
:10177000F0BD0A960294E4032868416C214201D12D
:1017800011B0F0BD15210901099169180491532187
:10179000C90069180391029A11020591D1020691BC
:1017A00003210903009191030891D10701910B9541
:1017B0000C9430E0410400D5E2E3810400D5E9E374
:1017C000F1006A18C10400D5F2E3010501D500F06B
:1017D0000AFC010601D500F018FC810501D500F0D6
:1017E00022FCC005CCD52868416CCF4A0A4042642F
:1017F00011B0F0BD3878C000CC490818416889B2F2
:1018000041604168416039782846FFF7B5FD286896
:10181000416C2142B4D0426C0F27174053D0BB001B
:10182000C658264200D1B7E10E93C1180A68C04BD2
:101830001A40802313430B60282179436D180999BE
:101840006B1857218900695C00290F9600D1A0E030
:10185000FF215431695C02290D9300D0B6E019785C
:10186000079108990E4200D0F5E00A2110911099D5
:10187000002905D01099491E109110990029F9D11D
:101880000799C900A94A511849680E0CA4490E408D
:101890002D21CA00AB58991B00D30EE10021A9509D
:1018A000B34200D90DE1079989004258A14B1A4073
:1018B000A14B5A4042500F99490600D405E1002E31
:1018C00000D00DE144E10168D20620D4984A1140CD
:1018D00021430160287CC00094490858000C9049BD
:1018E0000840E862696A081868620026284631469E
:1018F000FFF742FD287B002889D0A86A002886D1FE
:10190000287B802101432868C1642E737FE7069AF3
:1019100011427CD1214200D179E70168844A11400B
:1019200080220A430260049E31780A221092109AA3
:10193000002A05D0109A521E1092109A002AF9D14E
:10194000C9007A4A511849680B0C75490B40F3617C
:101950000ED0716900290BD0F28803F0D9F9F06933
:1019600071690818706100212846FFF771FD286829
:101970000168069A114200D049E7009A114091424D
:1019800000D144E701686B4A11406C4A5140016044
:101990003DE719780A221092109A002A05D0109A71
:1019A000521E1092109A002AF9D1C9005F4A5118AC
:1019B00049680E0C5A490E4000D19CE1AB21490008
:1019C0006A5A0A9CA10069580D93A4E019788A000C
:1019D0008358574E33402646C0361E4386508258A1
:1019E000089B1A427FD10A221092109A002A05D031
:1019F000109A521E1092109A002AF9D1C9004B4A2F
:101A0000511849680E0C46490E4069D1A0E0049E69
:101A100031780A221092109A002A05D0109A521E8C
:101A20001092109A002AF9D1C900404A5118496809
:101A30000B0C3B490B40F361F288039903F068F902
:101A4000286801683A4A114080220A430260284609
:101A500000F0DEFBDBE60A2110911099002905D089
:101A60001099491E109110990029F9D10799C900C0
:101A70002E4A51580E0C2A490E402D21CA00AB584F
:101A8000991B5DD20021A950B3425CD80799890007
:101A90004258284B1A40284B5A4042500F99490649
:101AA00054D5079989004258214B1A402346C03328
:101AB00013434350002E28D14AE0A950B34200D826
:101AC000F1E60F99490600D5F9E6079989004258D1
:101AD000174B1A402346C03313434350002E37D0D0
:101AE000AD21490013E00A221092109A002A05D075
:101AF000109A521E1092109A002AF9D1C9000B4A6E
:101B000051580E0C06490E4022D02B21C9006A5AAA
:101B10000A9CA1006958334603F0FAF81AE0C0465F
:101B2000FF030000FFFB0000FFFE000000980040E4
:101B30000F0FFF070F3FFF0780A0000080B00000DD
:101B4000A950B342A2D90F994906AAD4002EDCD1DC
:101B500000260A9C0D9B5B2080002958891929507A
:101B6000A0002958891929502D20C0002858002884
:101B700004D00B2040012858B04205D919780B9D9C
:101B80002846FFF765FC04E00B9D2868194602F023
:101B9000B9FD0C9C0F9E0E9B300600D437E62868DA
:101BA000C158FB4A11402143C150282179436A188A
:101BB000D37C17461037012B1BD100209062107F79
:101BC000002800D11FE6507C710600D581E0012875
:101BD00000D10FE6002800D015E63878C000F149A2
:101BE00008184168F04A114041604168019A114368
:101BF00008E605990E4219D13978CB00E94CE35833
:101C00001B0CEA4C2340946AE51A00D20025956229
:101C10009C4273D9516AC9185162D16AC918D162FC
:101C2000394602F06FFD0B9D0C9CF0E53C78710687
:101C30000F960E9468D40A2110911099002905D0AE
:101C40001099491E109110990029F9D1E400D54945
:101C50000D940C1961680D0CD4490D40966A711BE6
:101C600000D200219162241DAE4200D88BE0089979
:101C70000F9B0B4207D10E9989004358FC4E33400D
:101C8000F94E334343503421515C012900D069E1BE
:101C9000516A49190F915162D16A4919D162166A84
:101CA000116B13463033B14200D3F8E01646343698
:101CB000002900D12CE1002535701D600E460F99DA
:101CC000537C012B00D0F1E023689BB223603304E6
:101CD000FCE0012800D19DE0002800D093E5387891
:101CE000C000E44B1958E14A114019501958019AA3
:101CF0001143195087E500260A9C2CE70B9D2846C6
:101D0000FFF73AFB0C9C82E50A21109110990029FB
:101D100005D01099491E109110990029F9D1E400BD
:101D2000D44909590D0CCF490D40966A711B00D258
:101D300000219162CF490C19AE4240D908990F9BFE
:101D40000B4207D00E9989004358C94E3340C64E06
:101D5000334343503421515C012900D002E1516AE0
:101D600049190F915162D16A4919D162136A166BF0
:101D70009E4200D3ACE01346343300211970002E8C
:101D800000D0A7E0AAE0517C01290F9E4BD000298A
:101D90000B9D57D1B74E07940D9C3159B34A114052
:101DA00031513159019A11433151079C0F9E2168DD
:101DB000AE4A114021602168019A114341E0517CF3
:101DC00001290F9E5CD000290B9D0ED12168A74EE2
:101DD000314021602168019A1143216061683140DE
:101DE0000F9E6160616811436160022B0C9C09D1F8
:101DF0000E99890042589E4B303313402246A03240
:101E00005A40425028460E99FFF7B6FA0898064203
:101E10002DD1FCE43878C000964A115889B211508F
:101E200011581150EFE4934A25460D9C115989B27F
:101E30001151115911512C46296889B2296029681C
:101E40000B9D2160022B0C9C09D10E9989004258F0
:101E5000874B303313402246A0325A404250284626
:101E60000E99FFF789FA0898064200D0CFE4286857
:101E70003978890042587E4B1A407B4B1A437DE0EB
:101E8000216889B2216021682160616889B261603E
:101E9000616861600B9D022B0C9CA9D0B2E78D1B81
:101EA0001D600F99537C012B00D10DE7002B46D10B
:101EB00023686E4D2B402360002E31D03E2E33D848
:101EC0003346029D2B407508EB189B06256834E0CD
:101ED000F11A1E461346303319603546517C0129EC
:101EE00010D0002939D12168604B19402160002DA4
:101EF00018D03E2D26D82946029B19406B08591848
:101F0000890603E0216889B221602904236822E060
:101F1000002333702E460F99537C012BC6D1D3E694
:101F2000256809E0236815E0F5067309002D00D146
:101F30005B1E9B0625681D43019B1D432560528B3C
:101F4000B3B20DE0E9066B09002900D15B1E9906CA
:101F500023680B4301990B432360128BABB20F999B
:101F600002F006FF0B9D2868397889004258404BE3
:101F7000303313400C9C2246B0325A40425046E463
:101F80003948813829684A6C02404A6411B0F0BD72
:101F90000F0FFF072868416C374A0A40426411B0AE
:101FA000F0BDC04600980040FFFFFF03FF030000A4
:101FB0002868016C042399430164016C0823994348
:101FC00001641078012804D1002111702846FFF720
:101FD000B5F9284600F0F2F82868416C274A0A4013
:101FE000426411B0F0BD2868016C08220A43026403
:101FF000416C234A0A404264016C04220A43026491
:10200000284600F07FF911B0F0BD1E4980312868E4
:10201000436C0B404364117800290ED0284600F031
:1020200071F911B0F0BD2868416C174A0A4042644A
:10203000284600F0CFF811B0F0BD016C04230B432B
:102040000364016C08230B4303641470406D800823
:102050003C210140516028462146FFF76FF911B03D
:10206000F0BDC046FF03000080C00000FFFFFF037B
:102070000F0FFF0700980040FFDF0000FFEF000098
:10208000FFF70000FFFE0000FFFD0000F0B581B08B
:10209000002846D004462920000126187078002820
:1020A00004D100203070204600F040F8032070700A
:1020B000206802F0CDFA2079002821D0009628214E
:1020C0004143002213461546E7183A627A62BA6223
:1020D000FA743D7401267E7428336D1C9942F3D145
:1020E00015210901611800221346009E0A614A6108
:1020F0008A61CA700B704A7028315B1C9842F5D116
:1021000007CC0C3C02F096FA002525730120707074
:10211000A07A012802D12046FFF7FEF8284601B038
:10212000F0BD0125284601B0F0BD000010B592B009
:10213000044601A8001D4021FEF72FF9206814492C
:10214000884201D012B010BD032080060E900124F9
:102150002003019001A800F0F3FB002801D0FEF756
:1021600071FF00F011F960030A490A6802430A602E
:1021700009680140009100980824002120460A4681
:10218000FFF7AAF82046FFF79BF812B010BDC04633
:10219000005C004058100240B0B5604C2068406AB6
:1021A000002801D004F082F9052080012168012572
:1021B0000D5002F0F9FE20684562B0BD80B559208F
:1021C0008000564909680958002901D0F320884742
:1021D00080BDC04680B55920800050490968095823
:1021E000002901D0F020884780BDC04610B52922C3
:1021F0001201835C012B01D1022010BD84180173F0
:1022000001222270006802F0ABFD0020207010BD9A
:10221000F0B583B05321C900029041183F480068CF
:10222000C46967683E465C360822304604F0C6FE44
:10223000A0680E218843A06000257D6401227A6297
:10224000BD635C21795600291CD4A573B17900299E
:1022500002D1F179002926D0B01DB96A0191164644
:1022600004F0E9FE03467863300283420FD920462A
:10227000019902F007FE25737002A1680143A16075
:1022800003B0F0BD11020843A06003B0F0BDBD6310
:10229000FA6A3A630198817B0298FFF7EBF9022012
:1022A000207303B0F0BD51020843A06003B0F0BD3D
:1022B000B0B5044629200001215C012901D102208A
:1022C000B0BD251801202870206802F013FD206899
:1022D00002F0A2F900202870B0BDB0B50446292054
:1022E0000001215C012901D10220B0BD2518012087
:1022F0002870206802F0ACF9206802F094F9002000
:102300002870B0BD80B5592080000449096809587B
:10231000002901D0F420884780BDC046EC0600208B
:1023200070B503246102204D2B680B400126720218
:1023300090421AD193421FD02868884310432860E6
:102340000F480168322048430E4904F06BFF411CDE
:10235000B0026A694B1E8B4202D202401946F8D184
:102360006969014208D0204670BDB002834203D0A3
:102370002A688A4302432A600024204670BDC04672
:102380002000002040420F000120800202490A681C
:1023900002430A607047C0460470004003204102B7
:1023A000014800680840704700700040012109049E
:1023B0000F4A13680B43136013688B43136006C8FE
:1023C0000A430168114342680A43816809041143C2
:1023D000084A51603F21090213688B43C06800021C
:1023E0001843106010686021014311607047C046B7
:1023F00038100240006C0040F0B581B004462B4F0D
:102400003A68386803213B685B063D460C3D2E6800
:10241000360703D4264D2D682E0900E02E6855049A
:102420005B0F084031060A0F0B2A00D30B226D0EFA
:10243000591C032806D0022806D0012890001F4A04
:10244000105802E01C4800E01A4804F0EBFE454337
:1024500038680026C003304606D538688002C00EB2
:10246000411C284604F0DEFE20603868C00130467A
:1024700006D460603868C0000DD4A66001B0F0BD1D
:1024800038680001400F411C284604F0CBFE606014
:102490003868C000F1D53868400F411C284604F068
:1024A000C1FE0646A66001B0F0BDC0460C10024059
:1024B000941002400024F40000093D005C74000800
:1024C000B0B584B00021E14A904200DD96E0421EA2
:1024D0003F2A00D9CEE0900001A212580846974644
:1024E000E12500081B270008D12800083127000833
:1024F000D1280008D1280008D12800084527000865
:10250000D1280008D1280008D1280008D1280008C7
:10251000D1280008D1280008D12800085927000830
:10252000D1280008D1280008D1280008D1280008A7
:10253000D1280008D1280008D1280008D128000897
:10254000D1280008D1280008D1280008D128000887
:10255000D1280008D1280008D12800087B270008CE
:10256000D1280008D1280008D1280008D128000867
:10257000D1280008D1280008D1280008D128000857
:10258000D1280008D1280008D1280008D128000847
:10259000D1280008D1280008D1280008D128000837
:1025A000D1280008D1280008D1280008D128000827
:1025B000D1280008D1280008D1280008D128000817
:1025C000D1280008D1280008D1280008D128000807
:1025D000D1280008D1280008D12800089B2700082E
:1025E000D1480268032111404900C04679448988D6
:1025F00049008F442D01E2003101BB00C74A9042DF
:1026000025DDC74A904255DD01225304984200D18E
:102610001EE11304984200D11AE1D303984200D07E
:1026200078E003200502C04CA0682840A84200D1F1
:102630001CE15502A84200D120E112029042084656
:1026400000D045E1A0688003184004B0B0BDB54A91
:10265000904249DC01235A02904200D1B1E09A0233
:102660009042084600D033E1AF480068C00100D571
:10267000DCE0CFE0802800D1DEE001231A029042A6
:1026800048D1A94A10688002800F400078448088B1
:1026900040008744DD000300E100E900D0688007C6
:1026A000084600D414E1D068400700D41FE1FA20A6
:1026B00004B0B0BD01225303984200D198E09303C7
:1026C000984227D103200307974800681840530712
:1026D000984200D1C0E01207904200D1D8E0002813
:1026E000084600D0F4E068E00122D302984200D10D
:1026F0008CE0120390420DD18B4A10680001830FC9
:102700008A485B007B449B885B009F440300C700B2
:102710008F00E100084604B0B0BD83480168090796
:10272000890FC0467944097949008F449146951F25
:102730007D4801680906890F7944097949008F4469
:10274000873C8B15784801688905890F7944097998
:1027500049008F447D32810B734801680905890F58
:102760007944097949008F44732877010121C9030D
:1027700080688003084004B0B0BD032002036A48AB
:102780000068104001225303984265D01203904222
:1027900013D0002808465BD09AE003200204624868
:1027A0000068104001225304984255D01204904210
:1027B00003D0002808464BD08AE000F0BDFA04B0F0
:1027C000B0BDFE4A10680002800FC0467844007910
:1027D000400087443D014149D0688007084600D445
:1027E00076E0D068400700D481E0FA2004B0B0BDA4
:1027F000F24A10680001830F4C48C0467B441B79A5
:102800005B009F4401561365084661E0EB48006891
:1028100080010BD40720000345498C680440601EEA
:10282000844100F077FAA04004B0B0BD01A8FFF7E2
:10283000E3FD029804B0B0BDE04A10680003800FC9
:102840007844007940008744033F0745FF010000BA
:1028500000F060FA04B0B0BD354800684005C1170B
:102860003548084004B0B0BDD90335E030480068B1
:102870008003C1173148084004B0B0BDE06880074C
:10288000084625D5E068400731D5FA2004B0B0BD30
:1028900001A8FFF7B1FD019804B0B0BD244B186842
:1028A0008007084614D51868000724D4D0680009AA
:1028B00022E01F4B18688007084609D518680007F2
:1028C00020D4D06800091EE0D0688007084608D4EC
:1028D00004B0B0BD0120C10390688003084004B07B
:1028E000B0BDD068400702D5FA2004B0B0BD7D204D
:1028F000000204B0B0BD18680006000F0B2807D313
:102900000B2005E018680006000F0B2800D30B20F1
:1029100080000849085804B0B0BDC046FF1F000041
:10292000FF7F0000FF07000088100240006CDC02FF
:10293000001002405C7400080024F40048E8010024
:10294000F0B587B0044601200702059003076078C0
:1029500000069A4E05D4002004902068C1074AD092
:1029600066E0303E30681840029006D13068184367
:102970003060306818400690069801960393904E98
:10298000306838433060FEF747FC0546306838420F
:1029900006D1FEF741FC401B0228F7D9032021E0B5
:1029A000032004900102D8480068084012D0216C2E
:1029B00088420CD0D44B1868059909041A680A4358
:1029C0001A601A688A431A607E4908401860C00776
:1029D00000D0E4E0CC4A10687A490840216C0143F9
:1029E00011600020049002980028744E039B18D0B8
:1029F0002068C1071CD1810722D4C10628D4010751
:102A00002FD4410736D481063CD4410643D4010675
:102A10004AD4384251D18105059F58D441045FD42E
:102A20006DE001990868984308602068C107E2D00A
:102A300031680322914362680A4332608107DCD522
:102A400031680C229143A2680A433260C106D6D590
:102A50000321890232688A436169114331600107A9
:102A6000CFD50321090232688A43216911433160BD
:102A70004107C8D53168C0229143E2680A433260F9
:102A80008106C2D50321090332688A43A169114333
:102A900031604106BBD50321090432688A43E169EC
:102AA000114331600106B4D50321890432688A4399
:102AB000216A114331603842ADD0032109053268E3
:102AC0008A43616A114331608105059FA6D50321C0
:102AD000890532688A43A16A1143316041040ED5E9
:102AE000E16B994205D13A0433467C3B1D6815439E
:102AF0001D6003221207336893430B43336039068A
:102B0000FB06C204304A09D4850419D442052F4A71
:102B100026D4000533D4049807B0F0BD656B9D4200
:102B200005D1264E7C3E37680F433760059F234E04
:102B3000366816402E43214D2E60204E8504E5D583
:102B4000A56B9D4205D133467C3B1E680E431E603B
:102B50001A4E336813402B43336042051B4AD8D5C5
:102B6000E36A8B4205D135467C3D2E680E432E60CC
:102B7000124E356815401D4335600005CBD5206BDE
:102B80007B06984204D133467C3B1C680C431C6096
:102B90003168114001433160049807B0F0BDFEF781
:102BA0003BFB0646594D58480068800700D511E7A1
:102BB000FEF732FB801BA842F5D914E788100240CB
:102BC00000700040FFFCFFFFFFFFFFF3FFFFFFFE71
:102BD000F0B583B00B4604464A4D286807273840B5
:102BE000884208D22868B8431843286028683840CB
:102BF000984200D082E02068C1074D4E50D06068F6
:102C000004282AD8810001A251588F46212C00089F
:102C10002D2C0008392C0008452C0008512C0008E8
:102C200031460839096889071BD467E031460839FD
:102C30000968490562D514E03146083909688903F5
:102C40005CD50EE0314608390968890156D508E09F
:102C50002D494968890751D503E02B49096889073F
:102C60004CD5029331680197B9430143374631602F
:102C7000FEF7D2FA0646254D3868382101406068D3
:102C8000C000814207D0FEF7C7FA801BA842F3D9E3
:102C9000032003B0F0BD2068029B1A4D3E46019F01
:102CA000810706D50F21090232688A43A1681143C2
:102CB000316029683940994207D92968B9431943D5
:102CC000296029683940994218D1400705D5380351
:102CD00031688143E0680843306000F02DF83168C6
:102CE0000905090F0A4A515C1F220A40D0400F49CA
:102CF00008600320FEF7AAFA03B0F0BD012003B07C
:102D0000F0BDC04600200240901002408813000031
:102D10004474000805480068054909684904490FDA
:102D2000044A515C1F220A40D04070472000002016
:102D3000081002405474000810B52A4C201F006887
:102D400038210140206805D0182922D103221040E3
:102D500001281ED120460C380268120703D42748E8
:102D60000068000A01E0006800090F220240002309
:102D70000B2A184600D810468000214A1258002914
:102D8000104602D1182912D010BD18461829FBD1BF
:102D90000DE0084608380022272805D8400812A36D
:102DA00018581829F0D102E010461829ECD12168F2
:102DB0000320084021684906490F491C022803D016
:102DC000032802D1104A00E00E4A20684004400E59
:102DD000504304F027FA2168490F491C04F022FAF5
:102DE00010BDC0460C1002400024F40000093D0054
:102DF00000000000007D00000080000094100240F0
:102E00005C7400080024F40000093D00F0B589B0AE
:102E1000F34CA668382103910E40E168032739403E
:102E2000049105900078C00651D405980078C00739
:102E300011D0102E06D0182E00D064E1049803287B
:102E400000D060E1FC480068800304D50598406824
:102E5000002800D1F3E005980078800719D5082EE6
:102E600006D0182E00D05DE10498022800D059E168
:102E7000F14A10684005059B03D5D868002800D1A9
:102E8000DDE07F2000065168814318690006084391
:102E90005060059800780007F24EE74C6CD4059A14
:102EA0001078400700D589E01078800600D5FDE055
:102EB0000598C46A0025002C00D1FEE2DE4988682E
:102EC000039A1040182800D08CE10125F5E2002E6D
:102ED00006D0182E00D099E00498012800D095E083
:102EE00020688007059A03D5D069002800D1A6E0A4
:102EF000536A2068000700D5A5E0DA484068000959
:102F0000F0252840834200D9A3E02068082101432E
:102F100021602068A84318432060FF2000026168F8
:102F20008143106A000208436060002E00D0B0E2C6
:102F30000125A06DC000029700D530E22807A16DE1
:102F40000143A165A16D0140089108980120040783
:102F50001F46FFF723FA3A46B749896DA143B64C9D
:102F6000A1656902884200D121E27F2A00D923E2CB
:102F7000703A5042504181E205994869002800D1D9
:102F8000ADE08869411E8841800071680422914348
:102F9000081870607068012101437160FEF73CF908
:102FA00005467068800700D579E7FEF735F9401BC4
:102FB0001128F6D93D46284609B0F0BD02970120F8
:102FC00004900107A06D0840019006D1A06D084350
:102FD000A065A06D0840069006980091A24C20685C
:102FE000C00557D404980702206838432060FEF7D4
:102FF00013F90546206838424CD1FEF70DF9401B05
:103000000228F7D9029D284609B0F0BD206805992D
:10301000C969002900D1CFE0012108432060FEF7F3
:10302000FBF805462068800700D507E1FEF7F4F8B5
:10303000401B0228F6D93D46284609B0F0BD0125BF
:10304000284609B0F0BD2068F0252840834200D80A
:103050005BE701950125A06DC00002977FD428078A
:10306000A16D0143A165A16D014007910798012061
:1030700004071F46FFF792F93A466F49896DA1434D
:103080006D4CA1656902884270D07F2A00D817E193
:1030900002201AE105988768F80770D13068049912
:1030A0008843306030680421884371E0B068059936
:1030B000896A002900D1F0E001210843B060FEF7E1
:1030C000ABF80546B068800700D5F1E6FEF7A4F836
:1030D000401B0228F6D93D46284609B0F0BD70686D
:1030E000012188437060FEF797F8054670688007F5
:1030F00000D4D4E6FEF790F8401B1128F6D93D46DF
:10310000284609B0F0BD01208304059949680B43A6
:10311000052212049342F84C00D0F6E022680A43DC
:103120002260F8E0F44B186801218C02059AD268FD
:103130000902002A00D110E108431860FEF76CF87C
:103140000546ED480068204200D037E1FEF764F8FC
:10315000401B0228F5D93D46284609B0F0BD1F4660
:10316000FFF71CF93A46690288428ED1812A00D2C3
:10317000AAE0B02A029F00D837E10220A6E030681A
:10318000790703D504210843306030680499084367
:103190003060DE4CFEF740F80546002F3ED0029F1F
:1031A0003068800762D4FEF737F8401BA042F7D999
:1031B0003D46284609B0F0BD012188432060FEF756
:1031C0002BF805462068800700D42EE6FEF724F889
:1031D000401B0228F6D93D46284609B0F0BDC0463E
:1031E00000100240029701273A06086804929043B3
:1031F0000860FEF711F80646022C00D09DE07C0620
:10320000BD480068204200D1F3E0FEF705F8801BBE
:103210000228F5D9029D284609B0F0BD029F30680A
:10322000800700D4ACE0FDF7F7FF401BA042F6D9C1
:103230003D46284609B0F0BD001002402068082134
:10324000014321602068F0218843059A516A0143B7
:103250002160FF20000261688143106A0002084378
:103260006060E2E590100240007000403068049910
:10327000CF0205998968090600D5A7E08021884317
:103280003060306838427ED0FDF7C6FF401BA04258
:10329000F7D9029D284609B0F0BD01218843B060EE
:1032A000FDF7BAFF0546B068800700D400E6FDF7D9
:1032B000B3FF401B0228F6D93D46284609B0F0BDB1
:1032C000703A5042504100E00020029F8B490A684A
:1032D00007239A4312180A6009681940814200D0F6
:1032E000EBE02068082101432160206801998843B0
:1032F000059A516A01432160FF2000026168814301
:10330000106A000208436060C3E0236893432360AF
:10331000002900D1D4E04404FDF77EFF054676483D
:103320000068204200D096E5FDF776FF401B642838
:10333000F5D93D46284609B0F0BD7C06029F6E488F
:103340000068204200D1B8E0FDF766FF801B03282B
:10335000F5D33D46284609B0F0BD88431860FDF717
:103360005BFF054664480068204200D191E5FDF707
:1033700053FF401B0228F5D93D46284609B0F0BD51
:103380003068000667D401980028029F5A49059AC0
:1033900000D089E5886D009B9843886584E51F46C9
:1033A000FEF7FCFF3A466902884200D0DDE5812A3B
:1033B00063D3B02A00D897E002205FE07F200006A8
:1033C0004D4A51688143059800695FE580210843B3
:1033D000306030683842D6D1FDF71EFF401BA04256
:1033E000F7D9029D284609B0F0BD902A7AD800206E
:1033F0006CE7414BD868039745490140059807465B
:103400003037C4CF0097C76B0197076C406C0A43F5
:1034100032430099090211433943029F0143019845
:103420000143D96003980007D9680143D96018683F
:10343000049908431860FDF7EFFE06462E48006821
:1034400020423AD1FDF7E8FE801B0228F6D93D461E
:10345000284609B0F0BD3068802188433060049868
:10346000C702306838428ED0FDF7D6FE401BA0421E
:10347000F7D9029D284609B0F0BD0020029F1F49E0
:103480000A6807239A4312180A60096819408142A2
:1034900013D1FFF751FCA1680905090F184A515CC7
:1034A0001F220A40D0401749086017480068FDF7FE
:1034B000CDFE0546002800D1B7E4284609B0F0BD8E
:1034C0004404FDF7A9FE05460B480068204200D1E0
:1034D000C1E4FDF7A1FE401B6428F5D93D4628460E
:1034E00009B0F0BD0120F1E6902A029F01D800202A
:1034F000C5E70120C3E7C04600100240002002409B
:1035000044740008200000200C00002088130000F4
:103510008C80C111401E010E01D001207047074967
:10352000074A5060074803680B4003218907591870
:10353000016000209060072111607047FFFFFF00CD
:1035400010E000E020ED00E0B0B58421415C0129ED
:1035500001D10220B0BD02468432242151600168AD
:103560000B680C680125AC430C606C07A3430B602F
:10357000002141661170202050600846B0BD000057
:10358000F0B581B08422825C012A02D1022001B010
:10359000F0BD0546683524222A620668376832681D
:1035A0000124A243326007225206B36893430B43BF
:1035B000B360406E0028204615D00097B768B06809
:1035C000400F2B49095C2B4A105CC00003F02AFE17
:1035D00004463801009F400F2549095C254A105CCC
:1035E000C00003F01FFE28806C8037600020287721
:1035F0002021296201B0F0BDF0B581B08422825C47
:10360000012A02D1022001B0F0BD0546683524220E
:103610002A620668376832680124A24332600722B2
:103620005207B36893430B43B360406E00282046B3
:1036300015D00097B768B068400F0D49095C0D4A76
:10364000105CC00003F0EEFD04463801009F400FFF
:103650000749095C074A105CC00003F0E3FD2880BD
:103660006C803760002028772021296201B0F0BDEE
:10367000AC740008A4740008B0B5002830D004462B
:10368000054684356868002804D10020287020464B
:1036900000F028F824206860206801680125A9430B
:1036A0000160A06A002802D0204600F071F920468F
:1036B00000F03CFA012811D00920C00221684A68B4
:1036C00082434A6088682A22904388600868012201
:1036D00002430A60204600F0C5F905462846B0BD01
:1036E0000120B0BDB0B598B00446002517951695D9
:1036F00015951495139502A8001D4021FCF74DFE69
:1037000020681749884201D018B0B0BD0495022442
:10371000029402A8FFF714F9002801D0FDF792FCEB
:10372000012041040F4AD3680B43D360D3680B4098
:1037300001930199116801431160116801400191E1
:10374000072017901695159514940C2013900520BA
:103750000007019913A9FDF777FC18B0B0BDC0466A
:10376000004400404C100240FEE70000F0B58BB072
:1037700003208102394800242246234603F07CFCC2
:10378000FF27002802D038460BB0F0BD01200AA95F
:1037900000F0C2FC069009A9204600F0BDFC05908F
:1037A00008A800F01FFD064607A800F00BFD0A99C7
:1037B000099B089A079D0096019202900395049434
:1037C0000698059A02F020FF0028DCD1244D2548F8
:1037D00025496960A8600126304600F04FFDE86089
:1037E000304600F053FD2149214A2C616861AA61ED
:1037F000E9613046314600F08DFC286030463146A4
:1038000000F0B6FC03462A68281D009019481A49A2
:1038100002F0AAF80028B6D1FEF7B6FD00F02EF8A7
:103820001F4D0C23284621462246FDF788FD8021A6
:103830004C2328462246FDF782FD81218C23284611
:103840002246FDF77CFD1748294601F091FB2846EA
:10385000FEF72EFD274638460BB0F0BD640A002067
:10386000E40100207342000871420008754200081C
:10387000794200086F000020F153000880B5084825
:10388000002181600221C171064901604121C90006
:103890008180FEF7FBFB002801D072B6FEE780BDF9
:1038A000F0060020005C0040FEE77047704780B5DE
:1038B000FDF7B6FC80BD000070B59EB00BAC201DBE
:1038C0004821FCF76AFD00250A950995089507959A
:1038D00006950595049503950295019501267002BC
:1038E000FEF71EFD16951596B020149013951296AE
:1038F00030200B902046FFF789FA002801D072B6DD
:10390000FEE70A95099508950720079007A8012466
:103910002146FFF75DF9002801D072B6FEE72004CA
:103920000B490A6802430A6009680140009120209F
:1039300006902220059007480490039501956007A2
:103940000290009801A8FEF731FD1EB070BDC04680
:10395000581002407FBB00000120C106094A1160D7
:1039600009490B6809490A6ADB0304D5D2B2AA2ABD
:1039700001D0CC2A00D1704780040A6802430A6053
:103980007047C04608ED00E0802002400020024061
:10399000B0B5816A0A070CD4CA0714D18A071CD4AF
:1039A0004A0724D4CA062CD48A0634D44A063CD406
:1039B0004CE00122D20303685C689443826B22438B
:1039C0005A60CA07EAD00122520403685C68944333
:1039D000C26A22435A608A07E2D5012212040368B0
:1039E0005C689443026B22435A604A07DAD501228D
:1039F000920403685C689443426B22435A60CA068F
:103A0000D2D50122120303689C689443C26B2243FF
:103A10009A608A06CAD50122520303689C689443BF
:103A2000026C22439A604A0610D5012213050268EF
:103A300054689C43456C2C4354609D4206D103233B
:103A40005B0554689C43836C23435360090607D588
:103A50000121C904026853688B43C06C184350604D
:103A6000B0BD0000F0B583B004469020002626507B
:103A700027468437FDF7D0FB034620680168090715
:103A80001FD52948009001200290410500222046C0
:103A90001D4600F05FF9002811D0EFF31080029965
:103AA00081F3108821680A6880239A430A6080F3B2
:103AB00010882020786003203E7003B0F0BD20689D
:103AC0002B460068400725D5174800900125A90519
:103AD0000022204600F03EF900281BD0EFF31080B2
:103AE00085F3108809214901226813688B4313600C
:103AF00080F31088EFF3108085F3108821688A68BE
:103B0000AA438A6080F310882020B86003203E70AA
:103B100003B0F0BD20207860B860E66626673046C6
:103B20003E7003B0F0BDC046FFFFFF01F0B581B0AD
:103B3000044600680168774A0A40A16823690B437C
:103B400061691943E5692943114301600326310383
:103B500042688A43E16811434160A2696E49884224
:103B600005D06E4B984202D06D4B984201D113465E
:103B700001E0236A13432246683200928268694F4B
:103B800017401F438760C26A0F239A43636A134337
:103B9000C3620127644A904232DD644A904256DC97
:103BA00088427CD05D49884200D096E00820FEF72C
:103BB00087FC002800D18DE0616A4900604A515AB3
:103BC00003F030FB626856430125B04200D295E015
:103BD0001103884200D993E0010E53080002002629
:103BE000C01871413346FCF7F9FA56494118564A54
:103BF0009142009A00D984E02168C860354680E08F
:103C00004C49884251D04C49884255D04B49884252
:103C100063D101204004FEF753FCF9038D4222D00A
:103C20000025002860D0616A4900454A515A03F0D6
:103C3000F9FA61684A08101803F0F4FA01461039DD
:103C4000424A914254D22168C860009A59E03449EE
:103C5000884239D03649884238463ED1FEF730FC9A
:103C6000F9038D42DCD1002500283FD0616A49006C
:103C7000334A515A03F0D6FA400061684A081018D6
:103C800003F0D0FA0246103A30498A4233D201405A
:103C90000007400F08432168C860009A31E01020F7
:103CA000FEF70EFC002887D114E00220FEF708FC86
:103CB000F9038D42B4D1D6E724481030FEF700FC5A
:103CC000F9038D42CFD0ABE70420FEF7F9FB0028C3
:103CD00000D071E70025009A13E00020FEF7F0FB0A
:103CE000F9038D42BFD09BE7009A0AE0009A08E0F2
:103CF0000125009A05E00125009A02E0009A00E003
:103D0000009A1348106000206067A067284601B041
:103D1000F0BDC046F369FFCF008000400084004042
:103D2000008C0040FFF4FF11FF7F0040FF8B00403C
:103D3000003801400044004000480040004C004072
:103D40008C74000800FDFFFFFFFC0F00F0FF000077
:103D500001000100F0B587B01D4616460F46036806
:103D6000D9693940C91B4A424A410021B2420FD1A8
:103D70000C9C002C0FD00591611C11D1D9693940E0
:103D8000C91B4A424A41B242F8D0059807B0F0BD7B
:103D9000084607B0F0BDFDF73FFA032007B0F0BDBD
:103DA00001468431029101210191C90204910690DA
:103DB000039506E0C9693940CA1B51425141B142DD
:103DC000E3D1FDF729FA411B0323A14248D8069805
:103DD00001680A685207EDD5402FEBD0802FE9D05B
:103DE000CA6912073FD4CA69049D2A42039DE1D0E3
:103DF0001E4604980862EFF31082012181F31088B7
:103E000009235B010698046825689D43256082F3B9
:103E10001088EFF3108281F31088069803689C687D
:103E20002C4D25409D60069882F31088C26E012AB1
:103E30000BD1EFF3108281F3108801680B68102416
:103E4000A3430B60069882F310882021029B99609F
:103E50000022C26642671A70D960304607B0F0BDD2
:103E6000184607B0F0BD08250D62EFF310810198E8
:103E700080F3108809225201069B1B681C6894433A
:103E80001C6081F31088EFF3108180F31088069A8C
:103E9000126893680F4C1C40069B946081F3108855
:103EA000D96E01290CD1EFF31081012282F3108821
:103EB0001A6813681024A3431360069B81F31088CB
:103EC0002021029A91600021D96659671170D5604E
:103ED00007B0F0BDFEFFFFEFF0B591B009230B93E3
:103EE0005B011226C6505624CC7278248C724E7216
:103EF00034240C7201254D7403240A940C7402249A
:103F00000894CC738D734024CC7100278F714F714E
:103F10000F714D700E7006956D020D738D700795C3
:103F20002D0A4D73CD70C3180E935F600C92012A59
:103F300011D1079A0A750023CB7601228A764C7636
:103F40000B76CB758B750622CA740A228A741C26DE
:103F50000E9A16604D75099189190D91014620310F
:103F6000049142686A4D6EE05A230293CD540E9B31
:103F70005D6805950D9B0B9EEE541E460D4628214F
:103F8000695C4B1E994106234B43194601932B460E
:103F9000243382255D54059DAD190421009169707B
:103FA0000F9E1099CE610E62019E9B190F9E1E718D
:103FB0001E46009B73800A9B7370029BC95C029132
:103FC000079BEF3B190A2973EB72039B6B74222149
:103FD000019129740299A9700721A9740521029100
:103FE000E974EB700F9E2E710A9969713146AE71BA
:103FF000EE712B720B9969722121A9726B73AE73EA
:104000000199E9730A996975059E1936310A0D9B64
:10401000D9709E703146029B2B760E9B5E60109984
:10402000CE8CAE752423CB5C2B75310AE9750D9BC4
:104030001979491C1971364D611C521C426081600E
:104040007F1C032F50D0022AFAD88468022CF7D89C
:10405000E9194E78002EF3D05C21514341188B6949
:10406000002BE9D10B46183301250F951D60284D13
:104070000A610E73012E01D12B780B7510910C99EA
:104080000170002A03D0012E1099D5D11AE0002327
:1040900005900D98C3708370294619250572C025B7
:1040A000C5710D4683710F994171037102234370ED
:1040B0000B99017005980E994B6809334B60012EDE
:1040C0001099B9D10B7D012BB6D10025002C039599
:1040D00000D149E70025049E234631684D195C361E
:1040E0005B1EFAD110993FE78068012803D9EF20C1
:1040F0000999069A05E068780228099905D10022F5
:1041000008988A71089A4A71087111B0F0BDC046CA
:10411000140000200120704770B50C4600280DD017
:104120000246104E104D30462946FFF7D5FE492075
:10413000800030180921490171180CE0204E0B4D08
:10414000002230462946FFF7C7FE4920800030187C
:104150000921490171180968006840182060284643
:1041600070BDC046BC040020CC0200200402002028
:10417000B0B5134A137D4B40147B44401C432306C7
:1041800001D0002301E05A23D35C6824145D44402D
:10419000154668352D7A4D4025432C0601D1B623AE
:1041A000D35CC424145D44401046C430007A4840B7
:1041B0002043000602D189204000135CD8B2B0BD74
:1041C00094030020B0B50446044D054828802846D5
:1041D000FCF79AF820602846B0BDC046E4050020F0
:1041E00009040000F0B581B004462C20144D0C21C8
:1041F000295414481449154A2A626962A862164A69
:10420000164B174E174F1848184929606860AF6061
:10421000EE602B616A610F48A8610D48E86128468D
:104220002D300B213022FCF791F838203121295410
:104230002846FCF769F82060284601B0F0BDC0466A
:10424000E80500206509040365766963534220444C
:1042500064792055020F576563730904726F6E69A4
:104260006C65637463726F6553544D690904011280
:10427000704770470020704700207047012801D028
:10428000002070470048704724000020012801D01A
:10429000002070472220704780B502F023FC80BDCB
:1042A000F0B582B002460F78B800131814589B4836
:1042B0002040CC78032C0BD8002501952646C0461B
:1042C0007C4424796400A74401070D0A012407E017
:1042D00026460124019405E00124A40201E0032400
:1042E000640220438E4C204318601868F34D284028
:1042F000384320431860087B002804D0022E009623
:1043000027D0204626E04878002800D18AE0F8002F
:10431000864A8758864C3C408450C9880324A14370
:1043200084580C4384507E4A1868400605D51868A6
:104330002840114640310143196030351F682F4035
:10434000012E00D1B2E02032574001981F6002B028
:10435000F0BD74481A68744C144004431C60F800A3
:10436000724A8458724D2C4084500324E4430F89D0
:10437000274086583E4386508718786828407860E2
:10438000488920407A6802437A60012294031868C1
:1043900020404C78002C1CD00028C84A009D04D036
:1043A00018681040C7490143196018684006019811
:1043B0005B4C05D51E6816402146403131431960DB
:1043C00030321E681640012D23D0214620314E4048
:1043D00020E00028B94D04D018682840B94C0443A7
:1043E0001C601868400605D5186828404C4C4034BD
:1043F00004431C603E1D3C684E4804403C60096913
:1044000000292DD03F2935D20A404908891889064C
:1044100027E02643B9491E601F680F4027431F60ED
:1044200002B0F0BDF800414C00194468404D2540F1
:104430004560CC880325AC43456825434560446806
:104440003F25AD06AC434460061D0969002932D002
:104450003E2951D801240C40490809198C062CE04A
:10446000D1073A680A433A603268024032603068E5
:10447000084310E0CC064909002C00D1491E8906EA
:104480003C680C43D20714433C60346804403460F9
:10449000306808431043224A984930601868084041
:1044A00087494140196030351F682F4017430198F4
:1044B0001F6002B0F0BD0121CC07316821437F4D60
:1044C000019831601968490404D51C682C407D4965
:1044D00021431960002F07D01A6888491140164FF0
:1044E0004F401F6002B0F0BD126884491140744F04
:1044F0004F401F6002B0F0BDCC064909002C6F4D43
:10450000019800D1491E890634680C430121C9076E
:104510002143316019684904D7D4DBE78F89FF074D
:1045200080800000808100000F0EFF07009800408F
:104530000000FFFFFFFFFF0380A0000080B50248DE
:10454000FDF7F0F880BDC046F006002010B50A78EF
:104550009200835880184A780C7B2E49002C20D07A
:104560000124A4032340002A27D0564C534A002B91
:1045700003D0036813402343036003685B0603D53D
:10458000036813400B430360036813402343036035
:104590003032036813400A46403A1A430260574AD1
:1045A00030E0002A25D0454C224630325B0629D522
:1045B000036823400B43036024E0404A002B04D0EF
:1045C000036813403F4C1C43046003685B0603D53B
:1045D000036813400B430360036813400B430360FD
:1045E0000368464C1C400B46403B2343036030327B
:1045F00008E05A04414A05D50368304C1C40314B51
:10460000E318036003681340403919430160002038
:1046100010BDC046C08000000121C903826D0A435D
:104620008265002070470121C903826D8A4382653B
:104630000020704701210164026C8A430264C907AB
:10464000026C8A43026400214164084670470000FE
:10465000016C024A0A400264002070477F40FFFF5D
:10466000B0B50A789300C258C0184B78002B08D018
:104670005206114A114B0FD4C978012915D10020D7
:10468000B0BD51040E4A1D4B10D501680B4C0C40B7
:104690000C496118016009E004681C40154620358A
:1046A00025430560C9780129E9D0303301681940F4
:1046B000514001600020B0BDA08000000F0FFF0737
:1046C00080B0000080C0000010B54B78002B04D0F3
:1046D000094A002B04D1094B03E0064A002BFAD00B
:1046E000074B0978890044581C405440445000202E
:1046F00010BDC04680900000908000000F3FFF0773
:104700003F0FFF07F0B588B00D46074648780128EF
:1047100045D12869AA698242064600D816462A7BF6
:10472000002A59D02B6AE978022900D084E0059646
:104730002E78B1007C1879582A46FA4D0D408342F4
:10474000049600D8D3E00797F74805432560106A20
:10475000059BC01A1062206840061546069200D5D7
:1047600018E10498C400F14AA05880B2A050A058A3
:10477000190401430294A15003201A461E460390D7
:104780000640701E3146814198B2C01C8008431A11
:104790002F890024002E00D070E132466FE1287B83
:1047A00000282CD0E87801283ED0022868D1E8699A
:1047B00000283BD0287880003A58DD490A408A42D8
:1047C00001D0002A32D138180168DA4A0A40DA49A1
:1047D00051184031016029E003233340581E1A4626
:1047E00082410596B0B2C01C80082946851A069100
:1047F000CE880024002B079745D11A4644E0A869CB
:10480000002803D1E878002800D135E1CA4829788A
:1048100089007A58C34B134003437B502869AA6927
:10482000824201D9101A00E00020A8612878800097
:104830003818C24EC24918E1981B286229788800AE
:10484000385840060797049100D589E0C800B74B57
:10485000C15889B2C150C15832040A43C25003241E
:104860003440601E21468141B0B2C01C8008461A07
:1048700029462D890022002C00D0A8E02746A7E079
:10488000012008B0F0BDE243FD497118069E77692A
:10489000002D11D0801840423A787D782D02AA1858
:1048A000BD78FE78360275192D04AA1804C1421C81
:1048B0003F1D82421046EFD2002BEF4E069D09D0DD
:1048C00020463A78A240104308347F1C5B1E1A042D
:1048D000F7D108602D78E800E94B195889B21950D2
:1048E0001958059A12040A431A50079FB8E0FF4866
:1048F00005432560F100E24815460A5892B20A5075
:104900000A581C0414430C5003221A40511E14462A
:104910008C4199B2C91C89080B1B29890C1869693B
:10492000002B0ED008784D782D0228188D78CE787F
:10493000360275192D04281801C45B1E091D002BB1
:10494000F0D1002A00D189E0002003460D7885408F
:104950002B430830491C521E1504F7D123607DE01B
:10496000C800FE4BC018416889B2416041683204FA
:104970000A43426003243440601E21468141B0B2A4
:10498000C01C8008461A29466D890022002C41D19E
:10499000274640E00498C100F04802910818416899
:1049A00089B2416041681A040A43426003221C46EE
:1049B0001440601E2146814198B2C01C8008431AF1
:1049C0006F890026002C039273D1224672E0D743F0
:1049D000ED184969002E11D0C01940420B784E786D
:1049E0003602F3188E78CF783F02BE193604F318DA
:1049F00008C5431C091D83421846EFD2002C2CD059
:104A000010460B78934018430832491C641E230457
:104A1000F7D121E0D743ED184969002E11D0C01914
:104A200040420B784E783602F3188E78CF783F02EA
:104A3000BE193604F31808C5431C091D83421846E5
:104A4000EFD2002C09D010460B789340184308325F
:104A5000491C641E2304F7D12860079FA34E049DC0
:104A6000A800381883493031303602680A40724055
:104A70000260002008B0F0BD8048C8E6E243D1499A
:104A80007F186969002B01912ED0801840420B4697
:104A900019785A78120251189A78DD782D02AA18DE
:104AA0001204511802C7411C1B1D81420846EFD257
:104AB0001BE0F243C3497F186969002B01917CD048
:104AC000801840420B4619785A78120251189A7889
:104AD000DD782D02AA181204511802C7411C1B1DB3
:104AE00081420846EFD269E00B46002E069A09D0B3
:104AF00020461978A140084308345B1C761E310417
:104B0000F7D13860AF4802994318586880B25860AE
:104B10000599019847185761106A1469A04211D885
:104B2000002210E00F0EFF07808100000098004077
:104B3000404000000F0FFF078080000080B00000A1
:104B40000F3FFF07421A694E049D06990A62A04270
:104B500000D80590059A10045968014359600399DB
:104B60001140481E0391814190B2C01C8008421A36
:104B70000698408993494118002A0ED038787B78EE
:104B80001B021818BB78FC782402E3181B041818C1
:104B900001C1521E3F1D002AF0D1039C002C67D09A
:104BA000002002463B7883401A4308307F1C641E75
:104BB0002304F7D10A60079F52E70B46002C069AA0
:104BC00009D030461978B140084308365B1C641E92
:104BD0002104F7D138607B4C029FE05980B2E0514C
:104BE0001069136A0090834205980546164600D85E
:104BF0001D462904E2590A43E25101990C187461D7
:104C000000998B42079F314601D8002200E01A1A12
:104C1000364E0B460A62039A2A40511E03928A417D
:104C2000A8B2C01C8008821A188966494118002A57
:104C30000ED0207863781B021818A378E5782D022F
:104C4000EB181B04181801C1521E241D002AF0D1B4
:104C5000039D002D00D102E7002002462378834007
:104C60001A430830641C6D1E2B04F7D10A60F6E667
:104C7000079FF5E60F0FFF0780800000808100008E
:104C8000009800400A7B4B78012B03D1002A11D0F9
:104C900000207047002AFBD10A789300C218C3583D
:104CA00010481840C978012912D1104908431060F2
:104CB000002070470A789300C218C3580C48184067
:104CC000CB780A49012B08D10843106000207047B7
:104CD000054948401060002070472031484010606E
:104CE000002070470F3FFF0780A000008080000079
:104CF0003F0FFF0700214164014A026408467047E4
:104D000080BF00000020704700207047406C704753
:104D1000B0B503201840441E0546A541DB1C9B0886
:104D20005B1B284C1219002B0BD010CA0C70250EDF
:104D3000CD70250C8D70240A4C705B1E091D002B54
:104D4000F3D1002809D0126800231446DC400C700F
:104D50000833491C401E0404F7D1B0BD0098004040
:104D6000002901D0002070478021C16400207047D5
:104D700070B503201840441E0546A541DB1C9B0866
:104D80005B1B104C1219002B0ED00C784D782D02A5
:104D90002C198D78CE78360275192D042C1910C275
:104DA0005B1E091D002BF0D100280AD000231C46F1
:104DB0000D789D402C430833491C401E0504F7D153
:104DC000146070BD00980040F0B581B00A46897B40
:104DD0007F250D401424052D11D803469420185822
:104DE0000679B5420BD20090802008400C276F4313
:104DF000DB19002806D04C335F68FE0706D020463A
:104E000001B0F0BD1B1D5F68FE07F8D193605D72B5
:104E10000124274384C398700024002DEFD0D07B59
:104E200003230340128A0098FCF7F2FB204601B0EE
:104E3000F0BD10B58A680024546094228058897BA4
:104E4000FCF76BFB204610BDF0B581B00E4607465F
:104E50008D6801F0ABFF009000242C72C32080000D
:104E600069688143696094257859B17BFCF77CFBC4
:104E70007859B17BFCF7A8FB009801F09BFF204616
:104E800001B0F0BD10B58A68536804241C43546017
:104E90009423C0588B7B917A1943FCF7FFFB0020C9
:104EA00010BD7F220A400C235343C018090606D5C3
:104EB0004C304068C10706D04007C00F7047001D46
:104EC0004068C107F8D1FF207047002070470000FC
:104ED00010B50368002B11D00A390B2916D8C06908
:104EE0007944097949008F44051114181C2024289D
:104EF0002E32363A1146FFF7E8FF10BD0220552446
:104F00000146224601F0AAFE204610BD022054248C
:104F1000F6E7114600F01AF910BD114600F008F945
:104F200010BD1146FFF750FF10BD1146FFF781FF7E
:104F300010BD1146FFF788FF10BD94214058D1B233
:104F4000FDF754F910BD00F09FF8002010BD0B2AAA
:104F500009D0002010BD1146FFF794FF10BD114687
:104F6000FFF79FFF10BD94214058FDF7B6F910BD23
:104F700070B50D46E44806688020706000249822D1
:104F80002046214601F024FF002809D094214550F5
:104F900006600449B161F06101203060204670BDB7
:104FA000122070BDD14E0008F0B583B057208000AC
:104FB000D5490C682258E169019127462F372646CA
:104FC0004C362146CC31012A04D1886A08600A4651
:104FD0002C320EE0201800220260486F012804D114
:104FE000886808600A460C3203E0086908600A46CF
:104FF000143212684A602346283321490E252A4676
:1050000001F092FE1F48706422463C326266A06E38
:1050100039783180E0662167A369204629469847A0
:1050200002979427019EF05900252946FCF7CCFAF7
:10503000F05902990A7829462B46FCF7E9FAF0590B
:1050400080210091FCF7C0FAF05902990A78009982
:105050002B46FCF7DDFA012025640821E065206677
:1050600021676567A16759208000E04909680958F0
:10507000002901D001208847002003B0F0BDC046C0
:105080005200002010270000F0B585B004464568A6
:1050900001F08CFEA1684A0520D4032217020E46B7
:1050A0003E401BD0019201220392930202952035CB
:1050B00007221202914304931943A16001F07AFE82
:1050C000BE420FD00399080286421AD12173802074
:1050D000A073284600F0BCFD049D24E001F06AFEA8
:1050E00005B0F0BD0020029948648020A073942090
:1050F0002658284600F0ACFD0028049D13D10198E5
:105100000AE08020A07394202658284600F0A0FDD5
:105110000028049D07D104202073002130460A4650
:105120000B46FCF7E8FAA068A843A06005B0F0BD04
:1051300070B50446942540598E68B17BFCF7D8F9C8
:105140006059B17BFCF740FA002070BDF0B581B02A
:105150000D4606468C68A76801F028FED849096804
:10516000496A002913D07A68510718D4910719D4D5
:10517000009002210A437A60942030586B69EA68F3
:10518000A17BAC6A032C15D1FCF7B5FA14E02621FB
:105190006962012501F00EFE284601B0F0BD212113
:1051A000696213E011070ED4052501F003FE2846BD
:1051B00001B0F0BDFCF75EFA0525009801F0FAFD9C
:1051C000284601B0F0BD04490A407A60042501F088
:1051D000F1FD284601B0F0BD0504000070B58168FE
:1051E000006A856C29608D60CE69FF2400E07669D5
:1051F000002E1AD0F07B032101400329F7D10E20A5
:1052000030560028F3D56E600120A864284630305F
:1052100000241022214601F005FFAC62306CA86327
:105220006969002901D028468847204670BD0000E2
:10523000F0B581B00646FD4807689920385C451EE8
:1052400038469A3001F0F7FE044638469C3001F0AB
:10525000F2FE009038469E3001F0EDFE0346FF203E
:105260000A2D49D83A465C32316A8E6C7D442D79DC
:105270006D00AF44050D1041411B4141232C3F00FF
:1052800030462146009A00F061F9002001B0F0BDDF
:10529000B86E316C01E0B86EB16C0170012110463E
:1052A0001A4601F059FC002001B0F0BD30462146FD
:1052B000009A00F039F8002001B0F0BD200AC1B218
:1052C0003046009A00F08AF9002001B0F0BD99370D
:1052D000B9784020325C00208A420DD03164002928
:1052E0000CD089007164B16A052905D00020B06234
:1052F00001B0F0BDB464002001B0F0BD0020C14396
:10530000716401B0F0BDC046EC06002010B5006A23
:10531000846C6068262101F019FCA169002901D084
:1053200020468847002010BDF0B583B01F46EC4BE7
:105330001C6884230325E550090AC9B223465C335F
:1053400025463C35222927D0212939D101930297BE
:1053500020468430C36C012B2BDB816CC818D2B281
:10536000FF2303E08B788919814222D20E784F788F
:10537000042FF7D09342F6D1212FF4D1029FBE42E1
:1053800000D33E460120000286420DD8A06E324670
:1053900001F014FE019822E0466ABE4200D33E4668
:1053A000012109028E4213D902200721122201F0A5
:1053B00055FCA369142120462A46984703B0F0BD46
:1053C000A369142120462A469847FF2003B0F0BD68
:1053D000C169A06E32461C4601F0F0FD2046314600
:1053E0003A4601F0B9FB03B0F0BDC046EC06002020
:1053F00080B501460068421E5420062A1CD8C046CB
:105400007A441279520097440310081418170C00BC
:105410004869032815D0572080BD0846FFF776FF5E
:1054200080BD084600F05EF980BD0846FFF7D6FE55
:1054300080BD0846FFF7FCFE80BD084600F042F83C
:1054400080BD002080BD0000BD4A1268526A032A58
:1054500006D1026D406D824204D008600020704782
:1054600050207047FF207047416D826D2C31914272
:1054700000D3C16C4165704710B50446B048006860
:10548000406A032818D1206D636D984216D09A683F
:10549000212A01D320229A608A600C310C330846FD
:1054A000194601F08BFD606DA16D2C30884200D350
:1054B000E06C6065002010BD502010BDFF2010BDC5
:1054C000EC060020F0B583B0056A476A00205C2234
:1054D000014601F07DFC04461220002C26D00190EC
:1054E000194828650295AC64B868E0613869606263
:1054F000F86820627869E060B86920610B20860155
:10550000002528462946324601F062FCE064002866
:1055100010D0811920656065A16538686061E84335
:1055200060647868A061284603B0F0BD054628464F
:1055300003B0F0BD002002998864204601F048FDC8
:10554000019D284603B0F0BD31560008F0B58BB080
:105550001C467B490D68842103226A509A21695CAC
:105560009B22AA5C202300AE0EC6AE6E012A02D199
:10557000016A012911D10269002A03D069469047C6
:1055800000280FD0200A274601D001200702002161
:1055900030463A4601F046FD18E06946FFF76CFFD9
:1055A0000028EFD10298A042274600D80746380AC3
:1055B00001D001200702002130463A4601F032FDB9
:1055C00069460C3130463A4601F0F8FC5C35284615
:1055D0003946224601F0C0FA0BB0F0BD10B58CB0D0
:1055E00004460291FD480268936E206A012807D1A3
:1055F000591C1878526F521E0190202A06D206E0DC
:10560000526F002019460190202A00D320220392D5
:1056100001A80C3001F0D2FCE268002A02D001A9F6
:105620002046904700200CB010BDC046EC0600207C
:10563000B0B582B00446E9480068406A032835D115
:10564000204630300190A06A05283FD80125C04689
:105650007844007940008744022B0739392E01F045
:1056600009FD0221A162E06201A92046FFF7ECFEDC
:1056700000280CD0606C0225401C19D001F0FAFC07
:10568000E26A811A00D2111A606C814210D301992A
:105690008A686568E86A0C3101F090FC0020286592
:1056A0000520A06201988168696305E00125A56273
:1056B000284602B0B0BDA16B606820300A4601F0F8
:1056C0005BFA042808D82046FFF7CEFE0020A0622F
:1056D0000225284602B0B0BD0525284602B0B0BD5F
:1056E000EC06002010B5006A846CE06C01F070FCE0
:1056F000204601F06DFC002010BD0000B0B5024650
:10570000DC4801684B6AFF20032B0AD10B46843327
:105710001C6B002C05D0A57B954203D0A469002CFE
:10572000F9D1B0BD886EE27B0270032018600122BF
:105730000A675C310846114601F00EFAB0BDC0465A
:10574000EC060020F0B599B0CA4A1668726A032ABE
:1057500015D13246A4321569002D07D033462433C3
:10576000AC7B84420FD0AD69002DF9D10220072116
:105770005224224601F072FA204619B0F0BD54249A
:10578000204619B0F0BDEC7B8C4203D100242046AA
:1057900019B0F0BD0590D76AFF24002FECD004911A
:1057A0000394019302960692966A02E036193F1B13
:1057B00015D0347870780228F8D1082216A80790FE
:1057C00030466549079B01F0AFFA07984079069982
:1057D00009688142EAD116A84488002C06D1039CAE
:1057E000204619B0F0BDF619E41BF8D03778707870
:1057F0000428F8D1092213A8079030465749079B7F
:1058000001F092FA0798807805998842EBD113A8A5
:10581000C07804998842E6D1EF69002F12D0262182
:10582000384601F093F9029883690F213A46984768
:105830000020F861B8613860786079697861002982
:105840000F46ECD100200790E8613078241A5BD035
:10585000361803E01C46F618E41A55D070783378F1
:105860000228F7D00428F5D00528F4D10699086A53
:105870001222002844D0CF693968002904D0401E84
:1058800068370028F8D13BE0059301200490386088
:105890003B460C3306223046314901F045FA398A3D
:1058A0000846304A104005229201E64B1B689A5880
:1058B000022A0AD10322D202114006D0FA7B049BAD
:1058C0001A4002D0C90A491C48433864BD61019896
:1058D000F8610798C0437865BF62029883690E211A
:1058E0003A469847002831D1E8690028059B05D041
:1058F000014640690028FBD14F61ACE7EF61AAE7A0
:105900001446204619B0F0BD28460C3013A90C22CD
:1059100001F054FBCB480068A97B890040180121A5
:10592000090240585724002800D125E7016C0029BE
:1059300000D121E7056610900A9506210891416C77
:1059400008A888470446204619B0F0BD0799396079
:105950000446204619B0F0BD4A0000206600002031
:1059600060000020FF070000F0B591B004931746D7
:105970000E4605460024059405A93F2201F060FB70
:10598000002801D011B0F0BD0294049C0397AD48EB
:105990000068FC214758386C002802D0122011B052
:1059A000F0BD169801900598421C3846294601F032
:1059B00005FB7E6401997965BC650398F8650F91D4
:1059C000052006900E9706A8B04700280299D9D165
:1059D00001203864084611B0F0BDC046EC06002036
:1059E00010B50323034097480068022B0CD0002B0E
:1059F0001BD1012927D12921C90041180868002895
:105A000023D00020486010BD0146B431096800E091
:105A10008969002909D0CC69002CF9D0A37B934275
:105A20000AD06469002CF9D1F2E702463C3283695E
:105A300014219847002010BD836910212246984701
:105A40000020606010BD002010BD542010BDC04675
:105A500080B57C480068816E02468432126A0A7002
:105A60008421032242505C3001210A4601F074F87F
:105A700080BDC046EC060020F0B599B00746002076
:105A80001890179016906F490968A4228A58BA4254
:105A900000D1D1E00391A4318E6ACD6A002D079127
:105AA000069707D1002F15D0FF2019B0F0BD361989
:105AB0002D1BF7D0347870780228F8D1082216AF61
:105AC000304661493B4601F02FF907997879069FE6
:105AD000B842ECD10868002803D007980469002C6C
